:020000040000FA
:1000000018F09FE518F09FE518F09FE518F09FE5C0
:1000100018F09FE50000A0E1F0FF1FE518F09FE554
:100020005800000040000000A02700004800000029
:100030004C000000000000005000000054000000D0
:10004000FEFFFFEAFEFFFFEAFEFFFFEAFEFFFFEA18
:10005000FEFFFFEAFEFFFFEA94009FE5AA10A0E37F
:100060005520A0E32430A0E3043080E50130A0E374
:10007000003080E50C1080E50C2080E5083090E52C
:10008000013B13E2FCFFFF0A0330A0E3003080E5F0
:100090000C1080E50C2080E558009FE50410A0E3DB
:1000A000041080E50210A0E3001080E548009FE501
:1000B000DBF021E300D0A0E1080040E2D7F021E32B
:1000C00000D0A0E1080040E2D1F021E300D0A0E19F
:1000D000080040E2D2F021E300D0A0E1030C40E2AE
:1000E000D3F021E300D0A0E1030C40E20C009FE537
:1000F00010FF2FE180C01FE000C01FE0F81F00408C
:1001000004010000000000EB2E0000EB2C008FE249
:10011000000C90E800A08AE000B08BE001704AE299
:100120000B005AE10000001A260000EB0F00BAE8AD
:1001300018E04FE2010013E303F0471013FF2FE133
:100140002428000044280000102052E27800B02843
:100150007800A128FBFFFF8A822EB0E13000B02892
:100160003000A12800409045004081451EFF2FE14E
:100170000030B0E30040B0E30050B0E30060B0E313
:10018000102052E27800A128FCFFFF8A822EB0E105
:100190003000A128003081451EFF2FE101C08FE211
:1001A0001CFF2FE11FB5059886460FBC009C02B0CE
:1001B0007047000001C08FE21CFF2FE130B475468C
:1001C000AE4630BC70470000370900EB0210A0E1DA
:1001D000F1FFFFEB1CC09FE50FC08CE001001CE3AA
:1001E0000DE08F120FE0A0011CFF2FE101C08FE294
:1001F0001CFF2FE102F08AFA4B0100007847C0464D
:1002000003002DE9EAFFFFEB0300BDE8440900EB22
:100210000C009FE50C109FE504209FE508309FE54A
:100220001EFF2FE1D8190040E01C0040D819004003
:1002300086B012E000F026FB040001A954A000F0F3
:1002400039FA601E01A900F09DFA00235A1E01A987
:100250005148006801F05EFDC046EBE786B009E05A
:1002600001A800F037F900235A1E01A94A48006886
:1002700001F050FDF4E786B056E000235A1E01A9B4
:100280004548006801F059FE01A800F0A2FB434870
:100290000078002845D142480078002841DD3F48D9
:1002A0000079002806D001280ED0022806D00328A5
:1002B00032D111E03BA000F029F931E000F038FC28
:1002C0003BA000F023F92BE03449C86800F03DFC66
:1002D00037A000F01BF923E03048C068002806D0A2
:1002E000012807D0022809D003280FD10AE000F026
:1002F0001FFC0FE00C2000F028FC0BE0182000F0A1
:1003000024FC07E0242000F020FC03E029A000F0FA
:10031000FDF8C046C04603E02AA000F0F7F8C0464A
:1003200002E028A000F0F2F8A7E782B04B20C0015D
:1003300000F01BF900F0B3FA00F0E3FB00221421F7
:10034000022001F033FC1449086000200121030061
:1003500080220091019001001E4800F0E1FC002085
:100360000121030080220091019001001A4800F051
:10037000D7FC0020012103008022009101900100A0
:10038000164800F0CDFC01F0A6F8C046FEE70000DC
:10039000627574746F6E200000000040B40000406D
:1003A0004400004069642061726D5F65766D0A00EB
:1003B0006F6B0A00756E636E6F776E627574746F23
:1003C0006E0A0000756E636E6F776E636F6D6D61A0
:1003D0006E640A00310200005D0200007702000036
:1003E0003A4880690F2109040843384988610F2081
:1003F0000004C86101200004486170470F2109040E
:10040000324AD161002806D0012809D002280CD038
:10041000032814D10EE0012109042C4A51610FE098
:1004200001214904294A51610AE001218904274A2E
:10043000516105E00121C904244A516100E0C04630
:10044000C046704700B50300002B05D12048006866
:10045000401E1F49086006E0012B04D11C480068BB
:10046000401C1B4908601A4909788807800FFFF76C
:10047000C5FF08BC184700B50120FFF7E3FF08BC23
:10048000184700B50020FFF7DDFF08BC18470F49EB
:100490000969012212048240114205D10121090497
:1004A00081400A4A516104E0012109048140074A60
:1004B000D1617047012109048140044A51617047AC
:1004C000012109048140014AD1617047008002E0A6
:1004D0000400004038B50400002516E000235A1E31
:1004E00069464348006801F028FD684600780D28F9
:1004F00004D10020605538BC08BC18476846027813
:100500002800691C0D062D0E2254E7E738B50400BB
:1005100038A000680090002509E0611900235A1EE8
:100520003548006801F0F6FB681C05062D0E605D7D
:100530000028F2D10023421E69462F48006801F0CE
:10054000E9FB2E48007B802188432C490873002357
:100550004A1769462848006801F0EFFC68460078B1
:100560002649087038BC08BC184770B50500002241
:100570000121142001F01AFB1D490860002201210D
:10058000142001F013FB1C4908602E0131001C48A7
:1005900002F0D4F804001B480068552108431949AB
:1005A00008600120154908720800007B8321084378
:1005B000124908730C70240A0C710800007B80211A
:1005C00088430E49087308000079032108430B494A
:1005D00008710D480D49486026200D4948600D48B6
:1005E0000069402108430B49086170BC08BC1847EA
:1005F000080000400D0000000C00004000C000E0BA
:10060000C0E1E40000C002E01806000000F1FFFFB6
:1006100000F2FFFF00F0FFFF1F502DE904D04DE274
:1006200080009FE50840D0E50F0004E2040050E39D
:100630000900001A6C009FE50000D0E500008DE580
:100640000030A0E30320A0E10D10A0E158009FE5D9
:10065000000090E5A60800EB0000A0E10F0004E216
:10066000020050E30A00001A0020A0E30D10A0E1F0
:1006700038009FE5000090E5A00800EB010050E382
:100680000200001A0000DDE518109FE50000C1E53A
:100690000000A0E10000A0E3D00F00E504D08DE24F
:1006A0001F50BDE804F05EE200C000E0080000401A
:1006B0000C0000400200002004E0135C0B54431CBB
:1006C0001806000E135C002BF7D10B54704710B4C2
:1006D0000B00002106E0445C9C4200D142544C1CBB
:1006E0002106090E445C002CF5D110BC704710B4F3
:1006F00002000B0000210AE0505C002804D1585C85
:10070000002801D110BC7047481C0106090E505C3E
:100710005C5CA042F0D00120F4E770B506000C004C
:10072000002502E0681C05062D0E605D0028F9D149
:1007300061193000FFF7BEFF70BC08BC184730B429
:10074000030030240C7078244C70002014E08500E5
:100750001C00EC402207120F0A2A05DA140030347C
:1007600005252D1A4C5504E01400573405252D1A83
:100770004C55441C2006000E0428E8DB00248C7134
:1007800030BC704770B506000C00002502E0681C04
:1007900005062D0E605D0028F9D161193000FFF7C4
:1007A000CEFF70BC08BC184730B40300187830285E
:1007B00005D15878782802D19878002802D10020F5
:1007C00030BC704700200860022420E01A5D062C2F
:1007D00001DD0020F4E7086800010860302A07DB2B
:1007E000392A05DC100030380D68281808600BE045
:1007F000612A07DB662A05DC100057380D682818C7
:10080000086001E00020DBE7601C0406240E185D90
:100810000028DBD10120D3E72E48006810210842D0
:1008200001D1012070472B4800684021084201D1C6
:100830000220F7E7274800682021084201D1032061
:10084000F0E7244800688021084201D10420E9E74C
:100850000020E7E782B014E0FFF7DEFF0190694671
:100860000879002808D0002C06D100231A0001A91D
:100870001948006801F04EFA684604790A2000F031
:1008800050FCE9E708B500235A1E69461248006883
:1008900001F053FB6846007801B008BC18471CB54E
:1008A0000C488068F02188430A49886000200121B3
:1008B00003008022009101900100084800F030FA06
:1008C00000220121080001F071F9034908601CBCF5
:1008D00008BC1847008002E01000004055080000E6
:1008E00070B506000D00002415E00C206043414A5D
:1008F0008018411C3000FFF7FAFE002808D10C20B8
:1009000060433C49085C2870012070BC08BC184753
:10091000601C0406240E042CE7DB0020F5E7F8B584
:10092000002423E0E000344940184668E000451800
:10093000E0004018071DE0000A008018011D30008B
:10094000FFF7CEFF012802D1002028700BE0694696
:100950003000FFF729FF012803D128700098386084
:1009600001E002202870601C0406240E2348007851
:100970008442D7DBF8BC08BC1847F0B4020001245D
:1009800000200023C046D15C002C12D0012C1BD1CA
:10099000202900D10CE0002901D1F0BC7047D51806
:1009A000C600154FF61975600024451C2806000E78
:1009B0000AE0202904D1022800D1EEE7012402E058
:1009C000002900D1E9E7C046C0465D1C2B061B0E7E
:1009D000D9E710B504002000FFF7CFFF07490870E2
:1009E000002220212000FFF772FEFFF798FF10BCC5
:1009F00008BC184714000040B40000404400004008
:100A0000684880680121890208406649886070470B
:100A10006448006801218902084201D10020704722
:100A20000120FCE782B06BE05F480078002804D02A
:100A3000012812D002285ED137E0FFF7E9FF012834
:100A400002D1FFF71EFD07E0002058490860584911
:100A500008600120544908704DE000235A1E694681
:100A60005448006801F069FA68460078002806D00A
:100A7000012808D002280DD0032813D10EE0002051
:100A8000494908700FE0022047490870474901981A
:100A9000086008E0019800F044FB04E04649019832
:100AA000086000E0C046C04625E0414800683F4974
:100AB0000968884203D101203B4908701AE03C488C
:100AC00000683A490968884207D239480068401CE2
:100AD00037490860FFF7CFFC0CE035480068334920
:100AE0000968884206D932480068401E30490860CB
:100AF000FFF7C7FCC046C0462F48006800F011FB56
:100B000092E71CB5FFF76CFC002208210A2001F0D7
:100B10004DF828490860002001210300802200913F
:100B200001900100254800F0FBF81CBC08BC1847E8
:100B30001CB50020694608700023421E1D4800684D
:100B400001F0E8F81CBC08BC18471CB504000120E3
:100B50006946087001940023821E1648006801F05F
:100B6000D9F81CBC08BC18471CB504000220694613
:100B7000087001940023C21E0E48006801F0CAF8F4
:100B80001CBC08BC18471CB504000320694608704B
:100B900001940023021F0748006801F0BBF81CBC49
:100BA00008BC1847008002E04800004050000040A8
:100BB0004C0000405800004054000040250A00004E
:100BC00010B5002406E014216143FA4A881800F0A9
:100BD00051FF641C042CF6D3F74800F04BFFF74894
:100BE00000F048FFF64800F045FFF64800F042FFED
:100BF000F54800F03FFFF048F4490860EF48F44939
:100C0000086010BC08BC184710B5040001F011FBC7
:100C1000F0480068401CEF490860EF480068002871
:100C200008D1ED4804600800006801280ED1FFF7E4
:100C3000C7FF0BE0E9480068002807D1E6480068D4
:100C4000C06AE16A884201D8E3480460E448006869
:100C5000401CE3490860E349E06A0968884202D918
:100C6000E049E06A08601422E16A5143D14A8818D9
:100C7000211D00F00FFF01F0E7FAD84800680028B6
:100C800007D0D5480068C06AE16A884201D201F005
:100C90003DFE10BC08BC1847FFB581B00E000A9F8E
:100CA0000C9C216B0398401E80000818009000984F
:100CB000C008C0000090002508E0715D20003430BD
:100CC0004155705D002800D102E06D1C082DF4D361
:100CD000C04600213B200155042F00D30327E762C3
:100CE000201D00F0D4FE2000183000F0D0FE24615A
:100CF0000420C01BA06164620020E063002140204A
:100D00000155049A684603C801F02CFA20600B983C
:100D1000002801D00B98046005B0F0BC08BC18474F
:100D2000FFB585B01700B80001F0DBFA0600002E11
:100D30000BD0442001F0D5FA0400002C01D026632A
:100D400004E0300001F021FB00E00024002C10D072
:100D500000220EA803C86B4613C303923A00089BF7
:100D600005A803C8FFF798FF2000FFF74DFF0125F6
:100D700001E00025ED43280009B0F0BC08BC18478D
:100D8000924909680968002901D1012100E0002188
:100D9000002904D00021C943934A116006E08B4921
:100DA0000968C968C868904A41681160704710B501
:100DB0000400206B01F0E9FA200001F0E6FA10BC13
:100DC00008BC184770B5050001F033FA002D02D1B8
:100DD0008148006800E028000400201D00F081FE2A
:100DE000A06A002803D02000183000F07AFE7C486A
:100DF0000068401C7A49086077480068844209D13D
:100E0000211D704800F046FE78480068401C774974
:100E1000086009E06F480068401E6E4908602000C5
:100E2000FFF7C5FFFFF7ACFF01F00EFA6B48006853
:100E3000002805D068480068844201D101F066FDB1
:100E400070BC08BC1847F8B50020009068480068DE
:100E5000002864D167480068451C66480560002D7D
:100E60000FD15A4807685A480068584908605848DE
:100E7000076061480068401C5F490860FFF780FF19
:100E8000C0465948006885423DD3C0464F48006877
:100E90000068002801D1012000E00020002804D0D3
:100EA0000020C043504908602CE048480068C068F2
:100EB000C4686668B54202D24B48066022E0201D35
:100EC00000F00FFEA06A002803D02000183000F0C8
:100ED00008FE4449E06A0968884202D94149E06A4B
:100EE00008601422E16A5143324A8818211D00F03B
:100EF000D1FD3949E06A0968C96A8842C6D3012030
:100F00000090C3E7C04634480068C06A14214843D3
:100F100028490858012801D90120009004E03748E9
:100F20000068401C3549086035480068002801D039
:100F3000012000900098F8BC08BC184770B5002448
:100F4000002601F076F92A480068401E284908600A
:100F500008000068002875D11E480068002871D07C
:100F600022E01748C068C4682000183000F0B9FDBE
:100F7000201D00F0B6FD1B49E06A0968884202D9CD
:100F80001849E06A08601422E16A5143094A881846
:100F9000211D00F07FFD1049E06A0968C96A884296
:100FA00002D301201649086005480068002829D1AD
:100FB000012028E0C4000040140100402801004046
:100FC0003C0100405001004064010040900000409E
:100FD00094000040640000405C000040700000404D
:100FE000800000406C000040840000406000004031
:100FF0008C000040680000407C000040740000400D
:101000007800004000200028ABD0002C01D0FFF772
:10101000B7FEFE480568002D0DD0C046FFF713FF50
:10102000002802D00120FA4908606D1E002DF5D17C
:101030000020F6490860F6480068002802D0012622
:1010400001F064FC01F000F9300070BC08BC1847E6
:10105000F8B505000E00EF480768EF480068001D6E
:1010600000F03FFD681C08D1002E06D0EA48016858
:10107000091DEA4800F00EFD1AE07C19E6480068F8
:101080004460BC4207D2E4480168091DE448006896
:1010900000F00CFD0CE0E0480168091DE148006823
:1010A00000F004FDE0480068844201D2DE4804609C
:1010B000F8BC08BC1847DD480068401CDB490860E4
:1010C0007047F3B581B0040000200090FFF7F3FFF4
:1010D000D0480668216802980D182068B04207D9E8
:1010E0002068A8420BD9B54209D90120009006E03A
:1010F0002068A84201D8B54201D90120009025609E
:101100000098002803D0A81B0021FFF7A1FFFFF7DC
:1011100015FF0700002F01D101F0F8FBFEBC08BC51
:10112000184770B504000025002C08D0FFF7C3FF56
:1011300000212000FFF78CFFFFF700FF0500002DC6
:1011400001D101F0E3FB70BC08BC184770B5040086
:1011500001F06FF8002C02D1AF48006800E02000D9
:101160000600F56A01F070F8280070BC08BC18474A
:1011700010B401000023002902D1A74C246800E02C
:101180000C002200D06A10BC7047FEB507000D00AD
:1011900000200090042D00D3032501F04AF8002F11
:1011A00002D19D48006800E038000400E66AAE42C3
:1011B00043D0B5420BD99848006884420DD0964878
:1011C0000068C06AA84208D80120009005E0924853
:1011D0000068844201D101200090E06A0190E5623C
:1011E000A069C00FC00702D10420401BA061616943
:1011F0001422019850438E4A8018814201D1012067
:1012000000E00020002812D0201D00F06AFC89496F
:10121000E06A0968884202D98649E06A08601422B7
:10122000E16A5143824A8818211D00F033FC00987E
:10123000002801D001F06AFBC04601F005F8FEBCB1
:1012400008BC184779480068002803D0012070497D
:10125000086027E000206E4908607648016800E0D9
:10126000491E14204843724A1058002801D1012019
:1012700000E000200028F3D114224A436C4BD01820
:10128000426852684260020008324368934202D1C9
:101290004268526842604268D2685F4B1A60654893
:1012A0000160C046704770B5050000F0C2FF002D18
:1012B00002D15948006800E028000400201D00F019
:1012C00010FCA06A002803D02000183000F009FCB0
:1012D000211D524800F0DEFB00F0B6FF56480068C2
:1012E000002805D000F0A5FFFFF74AFD00F0ACFF95
:1012F00049480068844212D14F480068002802D053
:1013000001F004FB0BE0454800684C49096888423D
:1013100003D100204049086001E0FFF793FF70BC53
:1013200008BC184710B4010000200A003B4C536968
:10133000A34201D1012300E00023002B11D0404C37
:10134000936AA34201D1012300E00023002B08D1BE
:10135000936A002B01D1012300E00023002B00D071
:10136000012010BC704770B505002C00002C27D060
:1013700029480068844223D000F05BFF2000FFF77B
:10138000D1FF00281AD0201D00F0ABFB2949E06AEC
:101390000968884202D92749E06A08601422E16A94
:1013A0005143234A8818211D00F074FB1A49E06A52
:1013B0000968C96A884201D301F0A8FA00F044FF25
:1013C00070BC08BC1847F8B5050000262C000027A3
:1013D0002000FFF7A7FF002840D01448006800282D
:1013E00037D10D49E06A0968C96A884200D30126ED
:1013F000201D00F076FB0F49E06A0968884202D997
:101400000C49E06A08601422E16A1BE074000040A5
:1014100078000040680000405C000040640100402B
:101420009400004090000040840000408C00004088
:10143000C40000406C0000407000004064000040A8
:101440003C0100405143FB4A8818211D00F022FB5B
:1014500004E021001831F84800F01CFB3000F8BC13
:1014600008BC184770B525E0FFF725FEF348006873
:10147000002801D1012000E000200500FFF75EFDFB
:10148000002D17D100F0D5FEEC48C068C468201DBF
:1014900000F027FBEA480068401EE9490860E94877
:1014A0000068401EE749086000F0CEFE2000FFF70C
:1014B0007EFCC046E34800680028D5D170BC08BC5B
:1014C0001847C046FFF7CEFFDA4800680128F9D96F
:1014D00001F01CFAF6E71CB5DB4800210B005A228C
:1014E00000910190D9A1DB48FFF71AFC0400012C00
:1014F0000CD101F00FFAA01ED74908600120D7498E
:1015000008600020D649086000F089FE1CBC08BCB9
:10151000184710B501F0FEF90020D049086000F02E
:1015200087FE10BC08BC184710B500F082FECC48FE
:10153000046800F089FE200010BC08BC1847002198
:10154000C74A10687047BE4800687047010000290C
:1015500002D1C448006800E00800020010003430E6
:10156000704770B505000C00BE48016818312800AE
:1015700000F09CFA01212000FFF76AFD70BC08BC56
:10158000184770B506000C0015000120C007204365
:10159000B44909688861B34801681831300000F027
:1015A00079FA01212800FFF753FD70BC08BC1847E9
:1015B00070B50600F068C4682000183000F091FA99
:1015C000A9480068002813D1201D00F08AFAA74915
:1015D000E06A0968884202D9A449E06A08601422D6
:1015E000E16A5143934A8818211D00F053FA04E040
:1015F00021001831904800F04DFA9A49E06A0968D4
:10160000C96A884204D9012501209949086000E08F
:101610000025280070BC08BC1847F8B505000F006D
:101620000120C00738432860EC68280000F059FA10
:10163000201D00F056FA8D49E06A0968884202D9F7
:101640008A49E06A08601422E16A5143794A88189D
:10165000211D00F01FFA8349E06A0968C96A8842BF
:1016600004D9012601208249086000E000263000EC
:10167000F8BC08BC18477F490968016078490968C7
:101680004160704770B504000D0000F0D2FD744851
:1016900002682868401C01D1002619E075492068BD
:1016A0000968884204D06068904201D801260FE0A2
:1016B0006068101A2968884209D228686168511A3E
:1016C000401A28602000FFF7D6FF002600E0012620
:1016D00000F0BAFD300070BC08BC18470120644916
:1016E000086070475F49096888695E490968C96A86
:1016F0000422511A5B4A12689161704770B5060066
:101700000D0000F096FD57480068C06B00280BD113
:1017100001215448006840300170002D04D0280099
:10172000FFF796FC01F0F2F800F08EFD00F081FD6D
:101730004C480068C46B002C0AD0002E04D0002056
:1017400048490968C86303E0601E46490968C863E0
:101750000021444800684030017000F075FD200011
:1017600070BC08BC1847FFB581B0070014001D000D
:1017700000F05FFD3B48006840300078022812D03E
:101780003849096808003C30C96BB9430160012140
:101790003448006840300170002D04D02800FFF765
:1017A00057FC01F0B3F800F04FFD00F042FD002CB3
:1017B00003D02C480068C06B20602A480068403085
:1017C0000078012801D1002608E0264909680800B0
:1017D0003C30CA6B02998A430260012600212148ED
:1017E00000684030017000F02FFD300005B0F0BC03
:1017F00008BC1847FFB583B00D0016001F0001207C
:101800000290039C00F015FD002F01D0E06B3860C2
:101810004020005D0190022140200155330001F07D
:101820008FF80539042B2F313A00E06B2843E06331
:1018300031E00000C40000403C0100405001004085
:1018400064000040600000408800004049444C456E
:1018500000000000C314000084000040700000403D
:10186000680000405C0000408C0000406C000040BC
:10187000780000407C000040E06B401CE0630AE020
:10188000E56308E00198022801D0E56301E000204B
:10189000029000E0C046C046019801281AD1201DE0
:1018A00000F01FF96D49E06A0968884202D96B4966
:1018B000E06A08601422E16A5143694A8818211DD0
:1018C00000F0E8F86749E06A0968C96A884201D906
:1018D00001F01CF800F0B8FC029807B0F0BC08BC9E
:1018E0001847FFB583B00D0016001F0001200190BE
:1018F000039C00200090002F01D0E06B3860402056
:10190000005D0290022140200155330001F018F8DB
:10191000051604080C0E1700E06B2843E0630EE088
:10192000E06B401CE0630AE0E56308E002980228EF
:1019300001D0E56301E00020019000E0C046C04610
:10194000029801282CD148480068002813D1201D96
:1019500000F0C7F84149E06A0968884202D93F4966
:10196000E06A08601422E16A51433D4A8818211D4B
:1019700000F090F804E0210018313C4800F08AF8AB
:101980003849E06A0968C96A884209D90C98002870
:1019900003D001210C98016002E001203449086065
:1019A000019807B0F0BC08BC1847F8B505000E0058
:1019B0002C00002000904020075D02210155E06BC3
:1019C000401CE063012F2AD127480068002813D16A
:1019D000201D00F086F82149E06A0968884202D992
:1019E0001E49E06A08601422E16A51431C4A8818C3
:1019F000211D00F04FF804E0210018311B4800F0D1
:101A000049F81849E06A0968C96A884207D9002E6E
:101A100002D00120306002E0012015490860F8BCC6
:101A200008BC184770B50500002D02D10D480068AC
:101A300000E02800060000F0FCFB4020805D02284A
:101A400004D1002140208155012400E0002400F051
:101A5000FBFB200070BC08BC184700006C00004075
:101A6000C40000405C0000408C0000403C0100408D
:101A7000780000400100083141600021C9438160C5
:101A800001000831C160016100210160704700213F
:101A90000161704742684A6093688B60936859603F
:101AA0009160086103685B1C0360704710B402001A
:101AB0000B685C1C01D1106907E01000083000E0E1
:101AC0004068446824689C42FAD944684C604C6879
:101AD000A160886041600A611468641C146010BCD5
:101AE000704701000A694B6888689860081D09C83A
:101AF00058605068884201D18868506000200861B1
:101B00001068401E10601068704770B505000E0028
:101B10002C0000F08EFB216CE06B484321684018DC
:101B200060600020A0632068A060E06B401E216C14
:101B3000484321684018E0600021C9434420015512
:101B400045200155002E10D12069002801D1012027
:101B500000E00020002810D120001030FFF728FD01
:101B600000280AD000F0D2FE07E020001030FFF776
:101B700081FF20002430FFF77DFF00F065FB01208E
:101B800070BC08BC1847F8B506000D001700069C8D
:101B9000002D01D1246000E02760E6632564012167
:101BA0002000FFF7B2FFF8BC08BC1847F7B582B0B9
:101BB00007000D00002D01D1002601E03E006E431C
:101BC0003000483000F08DFB0400002C09D02000CC
:101BD00048300190009429003800049B019AFFF7D7
:101BE000D2FF200005B0F0BC08BC184770B5040057
:101BF00000F01FFB4520055714E0606A002801D162
:101C0000012000E00020002808D120002430FFF748
:101C1000CFFC002803D0FFF761FD00E004E0681E60
:101C200000060516002DE8DCC0460021C94345200A
:101C3000015500F009FB00F0FCFA4420055714E0C0
:101C40002069002801D1012000E0002000280BD1EC
:101C500020001030FFF7ACFC002801D0FFF73EFD5C
:101C6000681E0006051600E001E0002DE8DCC04615
:101C70000021C9434420015500F0E6FA70BC08BCBD
:101C8000184770B5050000F0D4FAA86BE96B8842DC
:101C900001D1012400E0002400F0D6FA200070BC3D
:101CA00008BC1847F8B504000F001500002000908C
:101CB000A66B206C002827D0002D0FD13900226C94
:101CC000A06800F091FB216CA0684018A0606168DA
:101CD000A068884218D32068A06015E03900226C03
:101CE000E06800F081FB216CE068401AE060216848
:101CF000E068884203D2216C6068401AE060022DDF
:101D000002D1002E00D0761E701CA0630098F8BC93
:101D100008BC1847FFB583B007001D0000200290E3
:101D20003C00C04600F085FAA06BE16B884201D30D
:101D3000022D21D12A0020000499FFF7B3FF0600ED
:101D4000606A002801D1012000E00020002808D1AD
:101D500020002430FFF72CFC002806D000F0D6FD30
:101D600003E0002E01D000F0D1FD00F06DFA01205B
:101D700007B0F0BC08BC18470598002803D100F054
:101D800063FA0020F4E70298002804D16846FFF7C0
:101D900072FC0120029000F057FAFFF78CF900F076
:101DA00048FA44200157491C00D1015545200157EC
:101DB000491C00D1015500F047FA05A96846FFF714
:101DC00061FC002819D12000FFF75BFF00280ED02E
:101DD000200010300599FFF7C4FB2000FFF706FF35
:101DE000FFF7ACF800289DD100F090FD9AE72000A5
:101DF000FFF7FCFEFFF7A2F894E72000FFF7F6FEDE
:101E0000FFF79CF80020B3E7FFB583B0050016008C
:101E10001F002C0000200190A06BE16B884201D3D1
:101E2000022F26D14520015700913A002000049945
:101E3000FFF738FF0098401C12D1606A002801D1DA
:101E4000012000E00020002810D120002430FFF7FE
:101E5000AFFB00280AD0002E08D00120306005E03A
:101E60000098401C010609164520015501200290EA
:101E700001E000200290029807B0F0BC08BC1847AF
:101E8000FEB505000E002C0000200290A06B019012
:101E9000E16B0198814223D94520015700910198B7
:101EA000401CA0630098401C12D1606A002801D138
:101EB000012000E00020002810D120002430FFF78E
:101EC00077FB00280AD0002E08D00120306005E002
:101ED0000098401C0106091645200155012700E025
:101EE00000273800FEBC08BC184770B5050000F09C
:101EF000A0F9A86B002801D1012400E0002400F023
:101F0000A3F9200070BC08BC184770B504000D0090
:101F1000206C00280ED0216CE0684018E0606168F9
:101F2000E068884201D32068E0602800226CE16804
:101F300000F05AFA70BC08BC1847FFB585B0050020
:101F40001E00002004902C00C04600F072F9A06B27
:101F500001900198002832D0E76820000699FFF729
:101F6000D4FF002E13D10198401EA06320690028E1
:101F700001D1012000E00020002819D120001030FC
:101F8000FFF716FB002813D000F0C0FC10E0E7605C
:101F9000606A002801D1012000E00020002807D15C
:101FA00020002430FFF704FB002801D000F0AEFC35
:101FB00000F04AF9012009B0F0BC08BC18470798A6
:101FC000002803D100F040F90020F4E7049800282D
:101FD00004D102A8FFF74FFB0120049000F034F970
:101FE000FFF769F800F025F944200157491C00D19A
:101FF000015545200157491C00D1015500F024F935
:1020000007A902A8FFF73EFB002819D12000FFF71F
:102010006CFF00280ED0200024300799FFF7A1FAAA
:102020002000FFF7E3FDFEF789FF00288DD100F0C7
:102030006DFC8AE72000FFF7D9FDFEF77FFF84E7FC
:102040002000FFF7D3FDFEF779FF2000FFF74DFFDB
:102050000028EED00020AEE7F7B584B005001600EA
:102060002C0000200390A06B02900298002827D03B
:1020700044200157019120000599FFF746FF02987F
:10208000401EA0630198401C12D12069002801D194
:10209000012000E00020002810D120001030FFF7C0
:1020A00087FA00280AD0002E08D00120306005E011
:1020B0000198401C0106091644200155012700E043
:1020C0000027380007B0F0BC08BC1847F3B581B052
:1020D00005002C0000200090A06B002807D0E768C6
:1020E00020000299FFF711FFE760012600E00026BB
:1020F0003000FEBC08BC184770B5040000F099F829
:10210000A56B00F0A1F8280070BC08BC184770B59A
:102110000400250000F08DF8A96BE86B461A00F06A
:1021200093F8300070BC08BC18470100886B7047FA
:1021300070B504002500280000F027F970BC08BC29
:10214000184701008A6B002A01D1012000E000201D
:10215000704701008A6BCB6B9A4201D1012000E0ED
:102160000020704730B40300001F0C1D0460001FE6
:102170003F4C0460001F0360001F3E4C0460001FC2
:102180003D4C0460001F3D4C0460001F3C4C04604B
:10219000001F3C4C0460001F3B4C0460001F3B4C84
:1021A0000460001F3A4C0460001F3A4C0460001F9A
:1021B000394C0460001F394C0460001F6410046037
:1021C000001F0260001F1F240460CC07E40F03D02F
:1021D000202504682C430460001F0024046030BCE8
:1021E000704700212E4AD1602E48110088610321DA
:1021F00051615114C968102291432B4AD1601100DA
:10220000096910221143284A11612849284A11609E
:102210002421284A11600121214A5160704710B5DC
:10222000FFF7DFFF00F09EFA002010BC08BC184743
:10223000704710B500F06EFB1F480068401C1E4937
:10224000086010BC08BC184710B51B48006800287F
:102250000AD019480068401E174908600800006845
:10226000002801D100F062FB10BC08BC1847000038
:10227000AAAAAAAA121212121111111110101010EA
:1022800009090909080808080707070706060606D6
:102290000505050504040404030303030202020206
:1022A000004000E0F824010000F0FFFF2C280000AF
:1022B00000F1FFFF00F2FFFF98000040444AD00801
:1022C000C000444A10600022424B5A60424A434BCD
:1022D0005A6000221A6001003F4A4A601A000A60F0
:1022E0007047F8B5040000200090FEF7E4FE3C487B
:1022F0000068002804D1FFF7E1FF01203849086099
:10230000002C08D008346007400F04D06007400F4D
:102310000821081A0419002C31D02F4884422ED2EB
:102320002C4F3800056801E02F002D686868A04236
:1023300002D228680028F7D1284885421FD0386883
:1023400008300090286838606868001B102810D991
:102350002E196868001B70606C6071681D4800E091
:102360000068026852688A42FAD3026832600660E6
:10237000C0461C4968680968081A1A490860FEF7CF
:10238000DDFD0098F8BC08BC184770B506003500A4
:10239000002E16D0083D2C00FEF78DFE61680D481A
:1023A00000E00068026852688A42FAD3026822603C
:1023B00004600C496068096840180A490860FEF723
:1023C000BDFD70BC08BC18470648006870477047E0
:1023D00080010040A4000040F8170000AC0000405D
:1023E000A00000409C0000407847C046030052E334
:1023F0002A00009A03C010E20800000A0130D1E46C
:1024000002005CE30C2082E001C0D1940130C0E402
:102410000130D13401C0C094042042E20130C03404
:10242000033011E28700000A042052E21B00003A48
:1024300003C031E7020053E30800000A0F00008ADE
:102440002C34A0E104C0B1E5042052E20C3C83E14D
:10245000043080E4F9FFFF2A011081E20F0000EA56
:102460002C38A0E104C0B1E5042052E20C3883E12D
:10247000043080E4F9FFFF2A021081E2070000EA3D
:102480002C3CA0E104C0B1E5042052E20C3483E10D
:10249000043080E4F9FFFF2A031081E20000A0E18C
:1024A000822FB0E10130D12401C0D1240120D144D8
:1024B0000130C02401C0C0240120C0441EFF2FE110
:1024C000013090E12100004A0020B0E3A03071E02B
:1024D0001A00003A203271E00F00003A203471E017
:1024E0000100003A00C0A0E3200000EAA03371E040
:1024F000810340200220B2E0203371E0010340203C
:102500000220B2E0A03271E0810240200220B2E05D
:10251000203271E0010240200220B2E0A03171E0DF
:10252000810140200220B2E0203171E00101402011
:102530000220B2E0A03071E0810040200220B2E031
:10254000011050E00010A0310200A2E01EFF2FE1B8
:10255000022111E20010614240C032E0000060221E
:10256000203271E01D00003A203471E00F00003A83
:102570000113A0E1203471E03F2382E30B00003A15
:102580000113A0E1203471E03F2682E30700003A06
:102590000113A0E1203471E03F2982E30113A0215F
:1025A0003F2C8223003071E21D00002A2113A0215C
:1025B000A03371E0810340200220B2E0203371E0BB
:1025C000010340200220B2E0A03271E081024020ED
:1025D0000220B2E0203271E0010240200220B2E08D
:1025E000A03171E0810140200220B2E0203171E091
:1025F000010140200220B2E0EBFFFF2AA03071E091
:10260000810040200220B2E0011050E00010A03113
:102610000200A2E0CCCFB0E10000604200106122D5
:102620001EFF2FE1CCCFB0E10000604201402DE958
:102630000000B0E30000A0E10240BDE81EFF2FE172
:10264000704770477047000010402DE9202052E28B
:102650000500003A1850B1E8202052E21850A0E8D6
:102660001850B1E81850A0E8F9FFFF2A02CEB0E1F7
:102670001850B1281850A0281800B1481800A048D8
:102680001040BDE802CFB0E1043091240430802432
:102690001EFF2F01822FB0E1B230D1200120D144A2
:1026A000B230C0200120C0441EFF2FE10E50A0E137
:1026B000180000EB05E0A0E10050B0E10D10A0E132
:1026C0000A30A0E10700C0E300D0A0E160D08DE2B5
:1026D00020402DE9CDF6FFEB2040BDE80060A0E3EF
:1026E0000070A0E30080A0E300B0A0E30710C1E306
:1026F00005C0A0E1C009ACE8C009ACE8C009ACE87D
:10270000C009ACE801D0A0E11EFF2FE10400C046E3
:10271000C0462000FDF772FD00009FE51EFF2FE17F
:102720007819004001C08FE21CFF2FE101491820F9
:10273000ABDFFEE7260002001EFF2FE17847C04610
:102740000020B0E3203171E079FFFF3AA03271E060
:102750006EFFFF3A203471E063FFFF3A00C0A0E350
:1027600082FFFFEA7847C0466C019FE5000090E5D4
:1027700000E090E564019FE50200BEE8001080E5FE
:102780000100BEE800F06FE1FF7FDEE80000A0E19D
:102790003CE09EE504F05EE2000000EF1EFF2FE14A
:1027A00004E08EE201002DE900204DE90000A0E1E7
:1027B00004D04DE20100BDE8004020E900E0A0E1C6
:1027C0000100BDE8FF7F4EE90000A0E13CE04EE2E1
:1027D00000004FE101002EE900019FE5000090E5B7
:1027E00001002EE9F0009FE5001090E500E081E592
:1027F000EC009FE50FE0A0E110FF2FE1D8009FE57E
:10280000000090E500E090E5D0009FE50200BEE802
:10281000001080E50100BEE800F06FE1FF7FDEE818
:102820000000A0E13CE09EE504F05EE201002DE93D
:1028300000204DE90000A0E104D04DE20100BDE818
:10284000004020E900E0A0E10100BDE8FF7F4EE983
:102850000000A0E13CE04EE200004FE101002EE963
:1028600078009FE5000090E501002EE968009FE5F3
:10287000001090E500E081E568009FE50FE0A0E131
:1028800010FF2FE1000050E30200000A50009FE516
:102890000FE0A0E110FF2FE10100A0E348109FE549
:1028A000000081E544009FE5000080E528009FE5E9
:1028B000000090E500E090E520009FE50200BEE802
:1028C000001080E50100BEE800F06FE1FF7FDEE868
:1028D0000000A0E13CE09EE504F05EE25C00004008
:1028E0009800004045120000470E0000004000E044
:1028F00030F0FFFF00C09FE51CFF2FE1091E000024
:1029000000C09FE51CFF2FE1592000007847C0461A
:10291000A0FFFFEA7847C04600000FE1801080E387
:1029200001F021E1800000E21EFF2FE17847C04660
:1029300000000FE18000C0E300F021E11EFF2FE165
:102940007847C04601C05EE50C0053E10100003A43
:102950000C30DEE7000000EA0330DEE783C08EE0E3
:102960001CFF2FE18429000000000040B40000009B
:1029700048010000382A0000B4000040441F000055
:1029800070010000000000000000000000000000D6
:10299000000000000000000000696400000000006A
:1029A0000000000001676F746F000000000000006D
:1029B0000263616C6C696200000000000362757460
:1029C000746F6E00000000000000000000000000B6
:1029D00000000000000000000100000000000000F6
:1029E00000000000000000000000000000000000E7
:1029F00000000000000000000000000000000000D7
:102A000000000000000000000000000000000000C6
:102A10000000000000000000000000000F27000080
:102A2000F817000000000000000000000000000097
:082A300000000000000000009E
:0400000500000104F2
:00000001FF
